{
  "contractName": "BFactory",
  "abi": [
    {
      "inputs": [
        {
          "internalType": "address",
          "name": "poolImpl",
          "type": "address"
        }
      ],
      "stateMutability": "nonpayable",
      "type": "constructor"
    },
    {
      "anonymous": false,
      "inputs": [
        {
          "indexed": true,
          "internalType": "address",
          "name": "newAuthorization",
          "type": "address"
        }
      ],
      "name": "AuthorizationSetted",
      "type": "event"
    },
    {
      "anonymous": false,
      "inputs": [
        {
          "indexed": true,
          "internalType": "address",
          "name": "caller",
          "type": "address"
        },
        {
          "indexed": true,
          "internalType": "address",
          "name": "blabs",
          "type": "address"
        }
      ],
      "name": "LOG_BLABS",
      "type": "event"
    },
    {
      "anonymous": false,
      "inputs": [
        {
          "indexed": true,
          "internalType": "address",
          "name": "caller",
          "type": "address"
        },
        {
          "indexed": true,
          "internalType": "address",
          "name": "exchProxy",
          "type": "address"
        }
      ],
      "name": "LOG_EXCHPROXY",
      "type": "event"
    },
    {
      "anonymous": false,
      "inputs": [
        {
          "indexed": true,
          "internalType": "address",
          "name": "caller",
          "type": "address"
        },
        {
          "indexed": true,
          "internalType": "address",
          "name": "pool",
          "type": "address"
        }
      ],
      "name": "LOG_NEW_POOL",
      "type": "event"
    },
    {
      "anonymous": false,
      "inputs": [
        {
          "indexed": true,
          "internalType": "address",
          "name": "caller",
          "type": "address"
        },
        {
          "indexed": true,
          "internalType": "address",
          "name": "operationsRegistry",
          "type": "address"
        }
      ],
      "name": "LOG_OPERATIONREGISTRY",
      "type": "event"
    },
    {
      "anonymous": false,
      "inputs": [
        {
          "indexed": true,
          "internalType": "address",
          "name": "caller",
          "type": "address"
        },
        {
          "indexed": true,
          "internalType": "address",
          "name": "poolImpl",
          "type": "address"
        }
      ],
      "name": "LOG_POOLIMPL",
      "type": "event"
    },
    {
      "inputs": [],
      "name": "_exchProxy",
      "outputs": [
        {
          "internalType": "address",
          "name": "",
          "type": "address"
        }
      ],
      "stateMutability": "view",
      "type": "function"
    },
    {
      "inputs": [],
      "name": "_operationsRegistry",
      "outputs": [
        {
          "internalType": "address",
          "name": "",
          "type": "address"
        }
      ],
      "stateMutability": "view",
      "type": "function"
    },
    {
      "inputs": [],
      "name": "_poolImpl",
      "outputs": [
        {
          "internalType": "address",
          "name": "",
          "type": "address"
        }
      ],
      "stateMutability": "view",
      "type": "function"
    },
    {
      "inputs": [],
      "name": "authorization",
      "outputs": [
        {
          "internalType": "contract IAuthorization",
          "name": "",
          "type": "address"
        }
      ],
      "stateMutability": "view",
      "type": "function"
    },
    {
      "inputs": [],
      "name": "getColor",
      "outputs": [
        {
          "internalType": "bytes32",
          "name": "",
          "type": "bytes32"
        }
      ],
      "stateMutability": "view",
      "type": "function"
    },
    {
      "inputs": [
        {
          "internalType": "address",
          "name": "b",
          "type": "address"
        }
      ],
      "name": "isBPool",
      "outputs": [
        {
          "internalType": "bool",
          "name": "",
          "type": "bool"
        }
      ],
      "stateMutability": "view",
      "type": "function"
    },
    {
      "inputs": [],
      "name": "newBPool",
      "outputs": [
        {
          "internalType": "contract BPoolExtend",
          "name": "",
          "type": "address"
        }
      ],
      "stateMutability": "nonpayable",
      "type": "function"
    },
    {
      "inputs": [],
      "name": "getBLabs",
      "outputs": [
        {
          "internalType": "address",
          "name": "",
          "type": "address"
        }
      ],
      "stateMutability": "view",
      "type": "function"
    },
    {
      "inputs": [
        {
          "internalType": "address",
          "name": "b",
          "type": "address"
        }
      ],
      "name": "setBLabs",
      "outputs": [],
      "stateMutability": "nonpayable",
      "type": "function"
    },
    {
      "inputs": [
        {
          "internalType": "address",
          "name": "poolImpl",
          "type": "address"
        }
      ],
      "name": "setPoolImpl",
      "outputs": [],
      "stateMutability": "nonpayable",
      "type": "function"
    },
    {
      "inputs": [
        {
          "internalType": "address",
          "name": "exchProxy",
          "type": "address"
        }
      ],
      "name": "setExchProxy",
      "outputs": [],
      "stateMutability": "nonpayable",
      "type": "function"
    },
    {
      "inputs": [
        {
          "internalType": "address",
          "name": "operationsRegistry",
          "type": "address"
        }
      ],
      "name": "setOperationsRegistry",
      "outputs": [],
      "stateMutability": "nonpayable",
      "type": "function"
    },
    {
      "inputs": [
        {
          "internalType": "address",
          "name": "_authorization",
          "type": "address"
        }
      ],
      "name": "setAuthorization",
      "outputs": [],
      "stateMutability": "nonpayable",
      "type": "function"
    },
    {
      "inputs": [
        {
          "internalType": "contract IERC20",
          "name": "pool",
          "type": "address"
        }
      ],
      "name": "collect",
      "outputs": [],
      "stateMutability": "nonpayable",
      "type": "function"
    }
  ],
  "bytecode": "0x608060405234801561001057600080fd5b506040516116d13803806116d18339818101604052602081101561003357600080fd5b505160028054336001600160a01b031991821617909155600380549091166001600160a01b03909216919091179055611660806100716000396000f3fe60806040523480156200001157600080fd5b5060043610620000dc5760003560e01c8063728daa561162000087578063728daa5614620001a25780639a86139b14620001cb5780639be05ec214620001e7578063a156440614620001f1578063c2bb6dc2146200021a578063c6ce34fb1462000257578063d556c5dc146200028057620000dc565b8063025c126e14620000e157806306ec16f8146200010c5780630f9f5024146200013557806336ffb167146200015b5780633817c86c146200016557806338683a4a146200016f57806346fa2ea91462000179575b600080fd5b6200010a60048036036020811015620000f957600080fd5b50356001600160a01b03166200028a565b005b6200010a600480360360208110156200012457600080fd5b50356001600160a01b0316620002e8565b6200013f6200048d565b604080516001600160a01b039092168252519081900360200190f35b6200013f6200049c565b6200013f620004ab565b6200013f620004ba565b6200010a600480360360208110156200019157600080fd5b50356001600160a01b0316620004c9565b6200010a60048036036020811015620001ba57600080fd5b50356001600160a01b031662000571565b620001d562000619565b60408051918252519081900360200190f35b6200013f62000626565b6200010a600480360360208110156200020957600080fd5b50356001600160a01b031662000635565b62000243600480360360208110156200023257600080fd5b50356001600160a01b0316620006dd565b604080519115158252519081900360200190f35b6200010a600480360360208110156200026f57600080fd5b50356001600160a01b0316620006fb565b6200013f620007a3565b6002546001600160a01b03163314620002da576040805162461bcd60e51b815260206004820152600d60248201526c4552525f4e4f545f424c41425360981b604482015290519081900360640190fd5b620002e58162000aed565b50565b6002546001600160a01b0316331462000338576040805162461bcd60e51b815260206004820152600d60248201526c4552525f4e4f545f424c41425360981b604482015290519081900360640190fd5b6000816001600160a01b03166370a08231306040518263ffffffff1660e01b815260040180826001600160a01b0316815260200191505060206040518083038186803b1580156200038857600080fd5b505afa1580156200039d573d6000803e3d6000fd5b505050506040513d6020811015620003b457600080fd5b50516002546040805163a9059cbb60e01b81526001600160a01b0392831660048201526024810184905290519293506000929185169163a9059cbb9160448082019260209290919082900301818787803b1580156200041257600080fd5b505af115801562000427573d6000803e3d6000fd5b505050506040513d60208110156200043e57600080fd5b505190508062000488576040805162461bcd60e51b815260206004820152601060248201526f11549497d15490cc8c17d1905253115160821b604482015290519081900360640190fd5b505050565b6004546001600160a01b031681565b6002546001600160a01b031690565b6000546001600160a01b031681565b6005546001600160a01b031681565b6002546001600160a01b0316331462000519576040805162461bcd60e51b815260206004820152600d60248201526c4552525f4e4f545f424c41425360981b604482015290519081900360640190fd5b6040516001600160a01b0382169033907fc62f68d4400e3b3c7565eef4479f34e47d945e3e6ce866f262bfcfda2de6ce1590600090a3600480546001600160a01b0319166001600160a01b0392909216919091179055565b6002546001600160a01b03163314620005c1576040805162461bcd60e51b815260206004820152600d60248201526c4552525f4e4f545f424c41425360981b604482015290519081900360640190fd5b6040516001600160a01b0382169033907f061786a52dcbea7e93aafcc7d26057c82bf591ed656c4d09673a592dcc733b1c90600090a3600580546001600160a01b0319166001600160a01b0392909216919091179055565b6542524f4e5a4560d01b90565b6003546001600160a01b031681565b6002546001600160a01b0316331462000685576040805162461bcd60e51b815260206004820152600d60248201526c4552525f4e4f545f424c41425360981b604482015290519081900360640190fd5b6040516001600160a01b0382169033907fd0385cf99f492a359155b3571ca3f863bdc57aba44b0160a3b49ad9573776a5890600090a3600380546001600160a01b0319166001600160a01b0392909216919091179055565b6001600160a01b031660009081526001602052604090205460ff1690565b6002546001600160a01b031633146200074b576040805162461bcd60e51b815260206004820152600d60248201526c4552525f4e4f545f424c41425360981b604482015290519081900360640190fd5b6040516001600160a01b0382169033907ff586fa6ee1fc42f5b727f3b214ccbd0b6d7e698c45d49ba32f224fbb8670155d90600090a3600280546001600160a01b0319166001600160a01b0392909216919091179055565b600080546001600160a01b0316635c50893a620007bf62000b7c565b306000356001600160e01b031916620007d762000b80565b6040518563ffffffff1660e01b815260040180856001600160a01b03168152602001846001600160a01b03168152602001836001600160e01b031916815260200180602001828103825283818151815260200191508051906020019080838360005b838110156200085357818101518382015260200162000839565b50505050905090810190601f168015620008815780820380516001836020036101000a031916815260200191505b5095505050505050602060405180830381600087803b158015620008a457600080fd5b505af1158015620008b9573d6000803e3d6000fd5b505050506040513d6020811015620008d057600080fd5b505162000924576040805162461bcd60e51b815260206004820152601c60248201527f417574686f72697a61626c653a206e6f7420617574686f72697a656400000000604482015290519081900360640190fd5b60035460055460048054604080519283526024830181526020830180516001600160e01b031663204a7f0760e21b179052516000946001600160a01b039081169481169392169190620009779062000bbf565b80856001600160a01b03168152602001846001600160a01b03168152602001836001600160a01b0316815260200180602001828103825283818151815260200191508051906020019080838360005b83811015620009e0578181015183820152602001620009c6565b50505050905090810190601f16801562000a0e5780820380516001836020036101000a031916815260200191505b5095505050505050604051809103906000f08015801562000a33573d6000803e3d6000fd5b506001600160a01b0381166000818152600160208190526040808320805460ff191690921790915551929350909133917f8ccec77b0cb63ac2cafd0f5de8cdfadab91ce656d262240ba8a6343bccc5f94591a3604080516392eefe9b60e01b815233600482015290516001600160a01b038316916392eefe9b91602480830192600092919082900301818387803b15801562000ace57600080fd5b505af115801562000ae3573d6000803e3d6000fd5b5092935050505090565b6001600160a01b03811662000b345760405162461bcd60e51b815260040180806020018281038252602f815260200180620015fc602f913960400191505060405180910390fd5b600080546001600160a01b0319166001600160a01b038316908117825560405190917f41e7dcfdf7480ba435eb5598d22d93feb42a49a5efa3cd3a74bd67830df10adb91a250565b3390565b60606000368080601f01602080910402602001604051908101604052809392919081815260200183838082843760009201919091525092935050505090565b610a2e8062000bce8339019056fe60e060405234801561001057600080fd5b50604051610a2e380380610a2e8339818101604052608081101561003357600080fd5b81516020830151604080850151606086018051925194969395919493918201928464010000000082111561006657600080fd5b90830190602082018581111561007b57600080fd5b825164010000000081118282018810171561009557600080fd5b82525081516020918201929091019080838360005b838110156100c25781810151838201526020016100aa565b50505050905090810190601f1680156100ef5780820380516001836020036101000a031916815260200191505b506040525050506001600160601b0319606085811b821660805283811b821660a05284901b1660c05280511561013557610133848261013e60201b6101301760201c565b505b50505050610318565b606061016383836040518060600160405280602781526020016109e16027913961016a565b9392505050565b60606101758461026e565b6101b05760405162461bcd60e51b8152600401808060200182810382526026815260200180610a086026913960400191505060405180910390fd5b60006060856001600160a01b0316856040518082805190602001908083835b602083106101ee5780518252601f1990920191602091820191016101cf565b6001836020036101000a038019825116818451168082178552505050505050905001915050600060405180830381855af49150503d806000811461024e576040519150601f19603f3d011682016040523d82523d6000602084013e610253565b606091505b509092509050610264828286610274565b9695505050505050565b3b151590565b60608315610283575081610163565b8251156102935782518084602001fd5b8160405162461bcd60e51b81526004018080602001828103825283818151815260200191508051906020019080838360005b838110156102dd5781810151838201526020016102c5565b50505050905090810190601f16801561030a5780820380516001836020036101000a031916815260200191505b509250505060405180910390fd5b60805160601c60a05160601c60c05160601c61068761035a6000398060ea528061047452508061010e52806103a752508060c6528061016e52506106876000f3fe6080604052600436106100385760003560e01c80635c60da1b1461004f5780639c00867314610080578063c7c30be11461009557610047565b36610047576100456100aa565b005b6100456100aa565b34801561005b57600080fd5b506100646100c4565b604080516001600160a01b039092168252519081900360200190f35b34801561008c57600080fd5b506100646100e8565b3480156100a157600080fd5b5061006461010c565b6100b261015c565b6100c26100bd61016c565b610190565b565b7f000000000000000000000000000000000000000000000000000000000000000081565b7f000000000000000000000000000000000000000000000000000000000000000081565b7f000000000000000000000000000000000000000000000000000000000000000081565b60606101558383604051806060016040528060278152602001610605602791396101b4565b9392505050565b6101646102b7565b6100c2610412565b7f000000000000000000000000000000000000000000000000000000000000000090565b3660008037600080366000845af43d6000803e8080156101af573d6000f35b3d6000fd5b60606101bf84610532565b6101fa5760405162461bcd60e51b815260040180806020018281038252602681526020018061062c6026913960400191505060405180910390fd5b60006060856001600160a01b0316856040518082805190602001908083835b602083106102385780518252601f199092019160209182019101610219565b6001836020036101000a038019825116818451168082178552505050505050905001915050600060405180830381855af49150503d8060008114610298576040519150601f19603f3d011682016040523d82523d6000602084013e61029d565b606091505b50915091506102ad828286610538565b9695505050505050565b6000356001600160e01b0319166313da703560e21b14806102ea57506000356001600160e01b03191663b02f0b7360e01b145b8061030757506000356001600160e01b031916638201aa3f60e01b145b8061032457506000356001600160e01b031916631f17a7a960e21b145b8061034157506000356001600160e01b031916635db3427760e01b145b8061035e57506000356001600160e01b03191663036836fd60e51b145b8061037b57506000356001600160e01b0319166346ab38f160e01b145b8061039757506000356001600160e01b03191662592ce960e31b145b156100c257336001600160a01b037f000000000000000000000000000000000000000000000000000000000000000016146100c2576040805162461bcd60e51b81526020600482015260166024820152754552525f4e4f545f45584348414e47455f50524f585960501b604482015290519081900360640190fd5b6000356001600160e01b031916631c9c3ca760e31b14156100c257600061043c36600481846105dc565b606081101561044a57600080fd5b506040805163a4c1cccb60e01b815291356001600160a01b039081166004840181905291519193507f0000000000000000000000000000000000000000000000000000000000000000169163a4c1cccb916024808301926020929190829003018186803b1580156104ba57600080fd5b505afa1580156104ce573d6000803e3d6000fd5b505050506040513d60208110156104e457600080fd5b505161052f576040805162461bcd60e51b815260206004820152601560248201527422a9292fa727aa2fa0a62627aba2a22faa27a5a2a760591b604482015290519081900360640190fd5b50565b3b151590565b60608315610547575081610155565b8251156105575782518084602001fd5b8160405162461bcd60e51b81526004018080602001828103825283818151815260200191508051906020019080838360005b838110156105a1578181015183820152602001610589565b50505050905090810190601f1680156105ce5780820380516001836020036101000a031916815260200191505b509250505060405180910390fd5b600080858511156105eb578182fd5b838611156105f7578182fd5b505082019391909203915056fe416464726573733a206c6f772d6c6576656c2064656c65676174652063616c6c206661696c6564416464726573733a2064656c65676174652063616c6c20746f206e6f6e2d636f6e7472616374a2646970667358221220d47c2233b1dc135f77c85d3c94e0ffbc21be537227e9300c924185e4b048b89164736f6c63430007040033416464726573733a206c6f772d6c6576656c2064656c65676174652063616c6c206661696c6564416464726573733a2064656c65676174652063616c6c20746f206e6f6e2d636f6e7472616374417574686f72697a61626c653a20617574686f72697a6174696f6e20697320746865207a65726f2061646472657373a264697066735822122088053005ae54e8d3cc7d2376e201503bad2285ccb4968e5ce10409dfa260af9b64736f6c63430007040033",
  "immutableReferences": {},
  "source": "// This program is free software: you can redistribute it and/or modify\n// it under the terms of the GNU General Public License as published by\n// the Free Software Foundation, either version 3 of the License, or\n// (at your option) any later version.\n\n// This program is disstributed in the hope that it will be useful,\n// but WITHOUT ANY WARRANTY; without even the implied warranty of\n// MERCHANTABILITY or FITNESS FOR A PARTICULAR PURPOSE.  See the\n// GNU General Public License for more details.\n\n// You should have received a copy of the GNU General Public License\n// along with this program.  If not, see <http://www.gnu.org/licenses/>.\n\npragma solidity ^0.7.0;\n\n// Builds new BPools, logging their addresses and providing `isBPool(address) -> (bool)`\n\nimport \"./BColor.sol\";\nimport \"./BPoolExtend.sol\";\nimport \"./IERC20.sol\";\nimport \"swarm-smart-contracts/contracts/authorization/Authorizable.sol\";\n\ninterface IBpool {\n    function initialize() external;\n    function setController(address manager) external;\n}\n\ncontract BFactory is BBronze, Authorizable {\n    event LOG_NEW_POOL(\n        address indexed caller,\n        address indexed pool\n    );\n\n    event LOG_BLABS(\n        address indexed caller,\n        address indexed blabs\n    );\n\n    event LOG_POOLIMPL(\n        address indexed caller,\n        address indexed poolImpl\n    );\n\n    event LOG_EXCHPROXY(\n        address indexed caller,\n        address indexed exchProxy\n    );\n\n    event LOG_OPERATIONREGISTRY(\n        address indexed caller,\n        address indexed operationsRegistry\n    );\n\n    mapping(address=>bool) private _isBPool;\n\n    function isBPool(address b)\n        external view returns (bool)\n    {\n        return _isBPool[b];\n    }\n\n    function newBPool()\n        external\n        onlyAuthorized\n        returns (BPoolExtend)\n    {\n        BPoolExtend bpool = new BPoolExtend(_poolImpl, _operationsRegistry, _exchProxy, abi.encodeWithSignature(\"initialize()\"));\n        _isBPool[address(bpool)] = true;\n        emit LOG_NEW_POOL(msg.sender, address(bpool));\n        IBpool(address(bpool)).setController(msg.sender);\n        return bpool;\n    }\n\n    address private _blabs;\n    address public _poolImpl;\n    address public _exchProxy;\n    address public _operationsRegistry;\n\n    constructor(address poolImpl) public {\n        _blabs = msg.sender;\n        _poolImpl = poolImpl;\n    }\n\n    function getBLabs()\n        external view\n        returns (address)\n    {\n        return _blabs;\n    }\n\n    function setBLabs(address b)\n        external\n    {\n        require(msg.sender == _blabs, \"ERR_NOT_BLABS\");\n        emit LOG_BLABS(msg.sender, b);\n        _blabs = b;\n    }\n\n    function setPoolImpl(address poolImpl)\n        external\n    {\n        require(msg.sender == _blabs, \"ERR_NOT_BLABS\");\n        emit LOG_POOLIMPL(msg.sender, poolImpl);\n        _poolImpl = poolImpl;\n    }\n\n    function setExchProxy(address exchProxy)\n        external\n    {\n        require(msg.sender == _blabs, \"ERR_NOT_BLABS\");\n        emit LOG_EXCHPROXY(msg.sender, exchProxy);\n        _exchProxy = exchProxy;\n    }\n\n    function setOperationsRegistry(address operationsRegistry)\n        external\n    {\n        require(msg.sender == _blabs, \"ERR_NOT_BLABS\");\n        emit LOG_OPERATIONREGISTRY(msg.sender, operationsRegistry);\n        _operationsRegistry = operationsRegistry;\n    }\n\n    function setAuthorization(address _authorization)\n        external\n    {\n        require(msg.sender == _blabs, \"ERR_NOT_BLABS\");\n        _setAuthorization(_authorization);\n    }\n\n    function collect(IERC20 pool)\n        external\n    {\n        require(msg.sender == _blabs, \"ERR_NOT_BLABS\");\n        uint collected = pool.balanceOf(address(this));\n        bool xfer = pool.transfer(_blabs, collected);\n        require(xfer, \"ERR_ERC20_FAILED\");\n    }\n}\n",
  "sourcePath": "/home/gabriel/dev/swarm/swarm-markets-balancer-core/contracts/BFactory.sol",
  "compiler": {
    "name": "solc",
    "version": "0.7.4+commit.3f05b770.Emscripten.clang"
  },
  "schemaVersion": "3.3.4",
  "updatedAt": "2021-03-19T14:13:24.362Z",
  "devdoc": {
    "kind": "dev",
    "methods": {},
    "version": 1
  },
  "userdoc": {
    "kind": "user",
    "methods": {},
    "version": 1
  }
}