{
  "contractName": "CRPFactory",
  "abi": [
    {
      "anonymous": false,
      "inputs": [
        {
          "indexed": true,
          "internalType": "address",
          "name": "caller",
          "type": "address"
        },
        {
          "indexed": true,
          "internalType": "address",
          "name": "pool",
          "type": "address"
        }
      ],
      "name": "LogNewCrp",
      "type": "event"
    },
    {
      "inputs": [
        {
          "internalType": "address",
          "name": "addr",
          "type": "address"
        }
      ],
      "name": "isCrp",
      "outputs": [
        {
          "internalType": "bool",
          "name": "",
          "type": "bool"
        }
      ],
      "stateMutability": "view",
      "type": "function"
    },
    {
      "inputs": [
        {
          "internalType": "address",
          "name": "factoryAddress",
          "type": "address"
        },
        {
          "internalType": "string",
          "name": "symbol",
          "type": "string"
        },
        {
          "internalType": "address[]",
          "name": "tokens",
          "type": "address[]"
        },
        {
          "internalType": "uint256[]",
          "name": "startBalances",
          "type": "uint256[]"
        },
        {
          "internalType": "uint256[]",
          "name": "startWeights",
          "type": "uint256[]"
        },
        {
          "internalType": "uint256",
          "name": "swapFee",
          "type": "uint256"
        },
        {
          "components": [
            {
              "internalType": "bool",
              "name": "canPauseSwapping",
              "type": "bool"
            },
            {
              "internalType": "bool",
              "name": "canChangeSwapFee",
              "type": "bool"
            },
            {
              "internalType": "bool",
              "name": "canChangeWeights",
              "type": "bool"
            },
            {
              "internalType": "bool",
              "name": "canAddRemoveTokens",
              "type": "bool"
            },
            {
              "internalType": "bool",
              "name": "canWhitelistLPs",
              "type": "bool"
            },
            {
              "internalType": "bool",
              "name": "canChangeCap",
              "type": "bool"
            }
          ],
          "internalType": "struct RightsManager.Rights",
          "name": "rights",
          "type": "tuple"
        }
      ],
      "name": "newCrp",
      "outputs": [
        {
          "internalType": "contract ConfigurableRightsPool",
          "name": "",
          "type": "address"
        }
      ],
      "stateMutability": "nonpayable",
      "type": "function"
    }
  ],
  "bytecode": "0x608060405234801561001057600080fd5b50615f95806100206000396000f3fe60806040523480156200001157600080fd5b50600436106200003d5760e060020a60003504635f93074c811462000042578063dc19e8421462000071575b600080fd5b62000059620000533660046200033f565b62000097565b60405162000068919062000511565b60405180910390f35b62000088620000823660046200031a565b62000229565b60405162000068919062000606565b60006002881015620000c95760405160e560020a62461bcd028152600401620000c0906200067f565b60405180910390fd5b858814620000ee5760405160e560020a62461bcd028152600401620000c09062000648565b838814620001135760405160e560020a62461bcd028152600401620000c09062000611565b60008c8c8c8c8c8c8c8c8c8c8c6040516200012e9062000247565b620001449b9a9998979695949392919062000525565b604051809103906000f08015801562000161573d6000803e3d6000fd5b50600160a060020a03811660008181526020819052604090819020805460ff191660011790555160e060020a6392eefe9b028152919250906392eefe9b90620001af90339060040162000511565b600060405180830381600087803b158015620001ca57600080fd5b505af1158015620001df573d6000803e3d6000fd5b5050604051600160a060020a03841692503391507f8aaa45dbe91f274e1c80489691f3d62dbf595d587fcc6a989fa27696e7c2a23290600090a39c9b505050505050505050505050565b600160a060020a031660009081526020819052604090205460ff1690565b61588280620006de83390190565b8035600160a060020a03811681146200026d57600080fd5b92915050565b60008083601f84011262000285578182fd5b50813567ffffffffffffffff8111156200029d578182fd5b6020830191508360208083028501011115620002b857600080fd5b9250929050565b60008083601f840112620002d1578182fd5b50813567ffffffffffffffff811115620002e9578182fd5b602083019150836020828501011115620002b857600080fd5b600060c0828403121562000314578081fd5b50919050565b6000602082840312156200032c578081fd5b62000338838362000255565b9392505050565b60008060008060008060008060008060006101808c8e03121562000361578687fd5b6200036d8d8d62000255565b9a5067ffffffffffffffff8060208e0135111562000389578788fd5b6200039b8e60208f01358f01620002bf565b909b50995060408d0135811015620003b1578788fd5b620003c38e60408f01358f0162000273565b909950975060608d0135811015620003d9578687fd5b620003eb8e60608f01358f0162000273565b909750955060808d013581101562000401578485fd5b50620004148d60808e01358e0162000273565b909450925060a08c013591506200042f8d60c08e0162000302565b90509295989b509295989b9093969950565b600160a060020a0316815260200190565b8183526000600160fb60020a038311156200046b578081fd5b6020830280836020870137939093016020019283525090919050565b80356200049481620006cb565b151582526020810135620004a881620006cb565b151560208301526040810135620004bf81620006cb565b151560408301526060810135620004d681620006cb565b151560608301526080810135620004ed81620006cb565b1515608083015260a08101356200050481620006cb565b80151560a0840152505050565b600160a060020a0391909116815260200190565b6000610180600160a060020a038e1683528060208401526200054a8c828501620006b6565b9050620005598c828f620006bf565b601f8c01601f191601828103604084015280620005778b82620006b6565b90508b9150825b8b811015620005b05760208301620005a2836200059c838762000255565b62000441565b90935091506001016200057e565b508381036060850152620005c6818a8c62000452565b9150508281036080840152620005de81878962000452565b9150508360a0830152620005f660c083018462000487565b9c9b505050505050505050505050565b901515815260200190565b6020808252601a908201527f4552525f53544152545f574549474854535f4d49534d41544348000000000000604082015260600190565b6020808252601b908201527f4552525f53544152545f42414c414e4345535f4d49534d415443480000000000604082015260600190565b60208082526012908201527f4552525f544f4f5f4645575f544f4b454e530000000000000000000000000000604082015260600190565b90815260200190565b82818337506000910152565b8015158114620006da57600080fd5b5056fe60806040523480156200001157600080fd5b5060405162005882380380620058828339810160408190526200003491620006a5565b855186906200004b90600390602084019062000315565b505060048054600160a060020a031916331790556001600555620f4240670de0b6b3a764000004821015620000b7576040517f08c379a0000000000000000000000000000000000000000000000000000000008152600401620000ae9062000830565b60405180910390fd5b67016345785d8a0000821115620000fc576040517f08c379a0000000000000000000000000000000000000000000000000000000008152600401620000ae9062000830565b84518451146200013a576040517f08c379a0000000000000000000000000000000000000000000000000000000008152600401620000ae90620007c2565b845183511462000178576040517f08c379a0000000000000000000000000000000000000000000000000000000008152600401620000ae906200078b565b600285511015620001b7576040517f08c379a0000000000000000000000000000000000000000000000000000000008152600401620000ae90620007f9565b600885511115620001f6576040517f08c379a0000000000000000000000000000000000000000000000000000000008152600401620000ae9062000867565b60068054600160a060020a031916600160a060020a03891617905584516200022690600e9060208801906200039a565b5083516200023c90600f90602087019062000400565b5082516200025290601290602086019062000400565b50600d91909155600a60148190556015556000601055600019601755805160088054602084015160408501516060860151608087015160a0909701511515650100000000000265ff0000000000199715156401000000000264ff000000001992151563010000000263ff00000019941515620100000262ff0000199615156101000261ff00199a151560ff199099169890981799909916969096179490941696909617919091169290921791909116179290921617905550620008f79350505050565b828054600181600116156101000203166002900490600052602060002090601f016020900481019282601f106200035857805160ff191683800117855562000388565b8280016001018555821562000388579182015b82811115620003885782518255916020019190600101906200036b565b50620003969291506200043d565b5090565b828054828255906000526020600020908101928215620003f2579160200282015b82811115620003f25782518254600160a060020a031916600160a060020a03909116178255602090920191600190910190620003bb565b506200039692915062000454565b828054828255906000526020600020908101928215620003885791602002820182811115620003885782518255916020019190600101906200036b565b5b808211156200039657600081556001016200043e565b5b8082111562000396578054600160a060020a031916815560010162000455565b8051600160a060020a03811681146200048d57600080fd5b92915050565b600082601f830112620004a4578081fd5b8151620004bb620004b582620008c5565b6200089e565b818152915060208083019084810181840286018201871015620004dd57600080fd5b60005b848110156200050857620004f5888362000475565b84529282019290820190600101620004e0565b505050505092915050565b600082601f83011262000524578081fd5b815162000535620004b582620008c5565b8181529150602080830190848101818402860182018710156200055757600080fd5b60005b8481101562000508578151845292820192908201906001016200055a565b600082601f83011262000589578081fd5b81516001604060020a038111156200059f578182fd5b6020620005b5601f8301601f191682016200089e565b92508183528481838601011115620005cc57600080fd5b60005b82811015620005ec578481018201518482018301528101620005cf565b82811115620005fe5760008284860101525b50505092915050565b600060c0828403121562000619578081fd5b6200062560c06200089e565b905081516200063481620008e5565b815260208201516200064681620008e5565b602082015260408201516200065b81620008e5565b604082015260608201516200067081620008e5565b606082015260808201516200068581620008e5565b608082015260a08201516200069a81620008e5565b60a082015292915050565b6000806000806000806000610180888a031215620006c1578283fd5b620006cd898962000475565b965060208801516001604060020a0380821115620006e9578485fd5b620006f78b838c0162000578565b975060408a01519150808211156200070d578485fd5b6200071b8b838c0162000493565b965060608a015191508082111562000731578485fd5b6200073f8b838c0162000513565b955060808a015191508082111562000755578485fd5b50620007648a828b0162000513565b93505060a088015191506200077d8960c08a0162000607565b905092959891949750929550565b6020808252601a908201527f4552525f53544152545f574549474854535f4d49534d41544348000000000000604082015260600190565b6020808252601b908201527f4552525f53544152545f42414c414e4345535f4d49534d415443480000000000604082015260600190565b60208082526012908201527f4552525f544f4f5f4645575f544f4b454e530000000000000000000000000000604082015260600190565b60208082526014908201527f4552525f494e56414c49445f535741505f464545000000000000000000000000604082015260600190565b60208082526013908201527f4552525f544f4f5f4d414e595f544f4b454e5300000000000000000000000000604082015260600190565b6040518181016001604060020a0381118282101715620008bd57600080fd5b604052919050565b60006001604060020a03821115620008db578081fd5b5060209081020190565b8015158114620008f457600080fd5b50565b614f7b80620009076000396000f3fe608060405234801561001057600080fd5b506004361061027a5760003560e060020a900480636d06dfa011610156578063a835a0de116100cd578063a835a0de14610506578063a9059cbb1461050e578063b02f0b7314610521578063b64ef17b14610534578063c275d81b1461053c578063c3391d2714610544578063c83a1c2d14610557578063d73dd6231461056a578063dd62ed3e1461057d578063e211b87514610590578063e2762d4b14610598578063f226b52814610506578063fde924f7146105ab5761027a565b80636d06dfa01461045957806370a082311461046c57806374983a0d1461047f578063806c6f87146104875780638259e6a01461049a57806392eefe9b146104ad578063948d8ce6146104c057806395d89b41146104d35780639776e94b146104db5780639a82417e146104ee5780639d829c2b146104f6578063a3f4df7e146104fe5761027a565b806334e19907116101f557806334e199071461036d57806337c6f4d91461038057806346ab38f11461039357806347786d37146103a657806349b59552146103b95780634ba57882146103cc5780634c20d209146103df5780634f69c0d4146103f2578063554d578d1461040557806355c32a231461040d5780635db34277146104205780635fa7b5841461043357806366188463146104465761027a565b806302c967481461027f57806306fdde03146102a8578063095dcccc146102bd578063095ea7b3146102d25780630a165940146102f257806318160ddd14610307578063220eb7601461030f57806323b872dd14610322578063246bc19b146103355780632e0f2625146103485780633018205f1461035d578063313ce56714610365575b600080fd5b61029261028d36600461412d565b6105b3565b60405161029f9190614e36565b60405180910390f35b6102b0610771565b60405161029f9190614730565b6102d06102cb366004614102565b6107a8565b005b6102e56102e0366004614102565b6107d8565b60405161029f9190614549565b6102fa610830565b60405161029f91906144d7565b61029261083f565b6102d061031d3660046142f7565b610845565b6102e56103303660046140c2565b610873565b6102d06103433660046141fa565b6109a7565b610350610c55565b60405161029f9190614e4d565b6102fa610c5a565b610350610c69565b6102d061037b3660046142f7565b610c6e565b6102e561038e3660046142d8565b610dc7565b6102926103a136600461412d565b610e5f565b6102d06103b43660046142f7565b611004565b6102d06103c7366004614284565b61113e565b6102d06103da3660046142f7565b611253565b6102d06103ed36600461412d565b611316565b6102d0610400366004614327565b6114aa565b6102926117fa565b6102d061041b366004614102565b61182e565b61029261042e36600461412d565b61185a565b6102d061044136600461406e565b611ab2565b6102e5610454366004614102565b611d07565b61029261046736600461412d565b611de1565b61029261047a36600461406e565b611fa1565b6102fa611fbc565b6102e561049536600461406e565b611fd4565b6102d06104a83660046142f7565b61201e565b6102d06104bb36600461406e565b612589565b6102926104ce36600461406e565b61263b565b6102b0612711565b6102d06104e9366004614102565b6127a7565b6102fa6128ff565b6102fa612917565b6102b061292f565b610292612968565b6102e561051c366004614102565b61296d565b6102d061052f366004614327565b6129ac565b6102fa612c24565b6102d0612c33565b6102d0610552366004614427565b612da1565b6102d061056536600461406e565b613370565b6102e5610578366004614102565b613470565b61029261058b36600461408a565b6134e4565b6102d061350f565b6102d06105a636600461406e565b61365a565b6102e5613791565b6040516000903390600160e060020a0319833516906105d59084903690614554565b60405180910390a26002600554141561060c5760405160e560020a62461bcd02815260040161060390614a83565b60405180910390fd5b6002600555600754600160a060020a031661063c5760405160e560020a62461bcd028152600401610603906149de565b60075460405160e260020a631ce1a8c9028152600091829173__SmartPoolManager______________________91637386a32491610690913091600160a060020a03909116908b908b908b906004016145d0565b604080518083038186803b1580156106a757600080fd5b505af41580156106bb573d6000803e3d6000fd5b505050506040513d601f19601f820116820180604052508101906106df91906143b6565b9150915080925060006106f284846138a4565b905086600160a060020a031633600160a060020a0316600080516020614ec6833981519152886040516107259190614e36565b60405180910390a36107373385611850565b61074081610867565b60065461075690600160a060020a0316846107ca565b6107618733886138e0565b5050505b60016005559392505050565b60408051808201909152601381527f42616c616e63657220536d61727420506f6f6c00000000000000000000000000602082015290565b3330146107ca5760405160e560020a62461bcd02815260040161060390614783565b6107d48282613b3b565b5050565b336000818152600260209081526040808320600160a060020a03871680855292528083208590555191929091600080516020614f068339815191529061081f908690614e36565b60405180910390a350600192915050565b600654600160a060020a031681565b60005490565b3330146108675760405160e560020a62461bcd02815260040161060390614783565b61087081613b46565b50565b6000600160a060020a03831661089e5760405160e560020a62461bcd02815260040161060390614902565b33600160a060020a03851614806108d85750600160a060020a03841660009081526002602090815260408083203384529091529020548211155b6108f75760405160e560020a62461bcd02815260040161060390614bcd565b610902848484613bae565b600160a060020a038416600081815260026020908152604080832033808552925290912054911480159061093857506000198114155b1561099a5761094781846138a4565b600160a060020a038681166000908152600260209081526040808320338085529252918290208490559051918716929091600080516020614f068339815191529161099191614e36565b60405180910390a35b60019150505b9392505050565b33600160a060020a0316600035600160e060020a031916600160e060020a0319166000366040516109d9929190614554565b60405180910390a260026005541415610a075760405160e560020a62461bcd02815260040161060390614a83565b6002600555600454600160a060020a03163314610a395760405160e560020a62461bcd02815260040161060390614783565b600754600160a060020a0316610a645760405160e560020a62461bcd028152600401610603906149de565b60085462010000900460ff16610a8f5760405160e560020a62461bcd02815260040161060390614970565b6007546040805160e060020a63cc77828d0281529051606092600160a060020a03169163cc77828d916004808301926000929190829003018186803b158015610ad757600080fd5b505afa158015610aeb573d6000803e3d6000fd5b505050506040513d6000823e601f3d908101601f19168201604052610b139190810190614161565b80519091508414610b395760405160e560020a62461bcd0281526004016106039061485d565b60075460145460405160e260020a630500fe7b02815260009260609273__SmartPoolManager______________________92631403f9ec92610b9592600160a060020a03909116916009918d918d918d918d919060040161469c565b60006040518083038186803b158015610bad57600080fd5b505af4158015610bc1573d6000803e3d6000fd5b505050506040513d6000823e601f3d908101601f19168201604052610be99190810190614371565b601082905560118690559092509050610c0460138888613f5e565b5060005b8351811015610c4657818181518110610c1d57fe5b602002602001015160128281548110610c3257fe5b600091825260209091200155600101610c08565b50506001600555505050505050565b601281565b600454600160a060020a031690565b601290565b33600160a060020a0316600035600160e060020a031916600160e060020a031916600036604051610ca0929190614554565b60405180910390a260026005541415610cce5760405160e560020a62461bcd02815260040161060390614a83565b6002600555600454600160a060020a03163314610d005760405160e560020a62461bcd02815260040161060390614783565b600754600160a060020a0316610d2b5760405160e560020a62461bcd028152600401610603906149de565b600854610100900460ff16610d555760405160e560020a62461bcd02815260040161060390614d4e565b600d81905560075460405160e060020a6334e19907028152600160a060020a03909116906334e1990790610d8d908490600401614e36565b600060405180830381600087803b158015610da757600080fd5b505af1158015610dbb573d6000803e3d6000fd5b50506001600555505050565b60405160e160020a6322c1aa2502815260009073__RightsManager_________________________90634583544a90610e07906008908690600401614dbc565b60206040518083038186803b158015610e1f57600080fd5b505af4158015610e33573d6000803e3d6000fd5b505050506040513d601f19601f82011682018060405250810190610e5791906142a0565b90505b919050565b6040516000903390600160e060020a031983351690610e819084903690614554565b60405180910390a260026005541415610eaf5760405160e560020a62461bcd02815260040161060390614a83565b6002600555600754600160a060020a0316610edf5760405160e560020a62461bcd028152600401610603906149de565b60075460405160e160020a633461ee95028152600091829173__SmartPoolManager______________________916368c3dd2a91610f33913091600160a060020a03909116908b908b908b906004016145d0565b604080518083038186803b158015610f4a57600080fd5b505af4158015610f5e573d6000803e3d6000fd5b505050506040513d601f19601f82011682018060405250810190610f8291906143b6565b915091508092506000610f9586846138a4565b905086600160a060020a031633600160a060020a0316600080516020614ec683398151915286604051610fc89190614e36565b60405180910390a3610fda3387611850565b610fe381610867565b600654610ff990600160a060020a0316846107ca565b6107618733866138e0565b33600160a060020a0316600035600160e060020a031916600160e060020a031916600036604051611036929190614554565b60405180910390a2600260055414156110645760405160e560020a62461bcd02815260040161060390614a83565b6002600555600754600160a060020a03166110945760405160e560020a62461bcd028152600401610603906149de565b600454600160a060020a031633146110c15760405160e560020a62461bcd02815260040161060390614783565b60085465010000000000900460ff166110ef5760405160e560020a62461bcd02815260040161060390614b28565b33600160a060020a03167f6bc200110c7794738d401810b22ef824a2044a8ccb022d4ad8769840370331f56017548360405161112c929190614e3f565b60405180910390a26017556001600555565b33600160a060020a0316600035600160e060020a031916600160e060020a031916600036604051611170929190614554565b60405180910390a26002600554141561119e5760405160e560020a62461bcd02815260040161060390614a83565b6002600555600454600160a060020a031633146111d05760405160e560020a62461bcd02815260040161060390614783565b600754600160a060020a03166111fb5760405160e560020a62461bcd028152600401610603906149de565b60085460ff166112205760405160e560020a62461bcd02815260040161060390614ca9565b60075460405160e160020a6324dacaa9028152600160a060020a03909116906349b5955290610d8d908490600401614549565b3330146112755760405160e560020a62461bcd02815260040161060390614783565b61127e81613c4d565b60175430600160a060020a03166318160ddd6040518163ffffffff1660e060020a02815260040160206040518083038186803b1580156112bd57600080fd5b505afa1580156112d1573d6000803e3d6000fd5b505050506040513d601f19601f820116820180604052508101906112f5919061430f565b11156108705760405160e560020a62461bcd02815260040161060390614b96565b33600160a060020a0316600035600160e060020a031916600160e060020a031916600036604051611348929190614554565b60405180910390a2600260055414156113765760405160e560020a62461bcd02815260040161060390614a83565b6002600555600454600160a060020a031633146113a85760405160e560020a62461bcd02815260040161060390614783565b600754600160a060020a03166113d35760405160e560020a62461bcd028152600401610603906149de565b6008546301000000900460ff166113ff5760405160e560020a62461bcd028152600401610603906147ba565b601054156114225760405160e560020a62461bcd02815260040161060390614d85565b60075460405160e260020a6307f9f55902815273__SmartPoolManager______________________91631fe7d5649161147091600160a060020a03169087908790879060099060040161466b565b60006040518083038186803b15801561148857600080fd5b505af415801561149c573d6000803e3d6000fd5b505060016005555050505050565b33600160a060020a0316600035600160e060020a031916600160e060020a0319166000366040516114dc929190614554565b60405180910390a26002600554141561150a5760405160e560020a62461bcd02815260040161060390614a83565b6002600555600754600160a060020a031661153a5760405160e560020a62461bcd028152600401610603906149de565b600854640100000000900460ff16158061156357503360009081526016602052604090205460ff165b6115825760405160e560020a62461bcd028152600401610603906148cb565b60075460405160e560020a6289af5d02815260609173__SmartPoolManager______________________91631135eba0916115d1913091600160a060020a031690899089908990600401614604565b60006040518083038186803b1580156115e957600080fd5b505af41580156115fd573d6000803e3d6000fd5b505050506040513d6000823e601f3d908101601f191682016040526116259190810190614249565b90506060600760009054906101000a9004600160a060020a0316600160a060020a031663cc77828d6040518163ffffffff1660e060020a02815260040160006040518083038186803b15801561167a57600080fd5b505afa15801561168e573d6000803e3d6000fd5b505050506040513d6000823e601f3d908101601f191682016040526116b69190810190614161565b905060005b81518110156117425760008282815181106116d257fe5b6020026020010151905060008483815181106116ea57fe5b6020026020010151905081600160a060020a031633600160a060020a0316600080516020614f26833981519152836040516117259190614e36565b60405180910390a3611738823383613cab565b50506001016116bb565b5061174c85611275565b61175633866107ca565b505060175430600160a060020a03166318160ddd6040518163ffffffff1660e060020a02815260040160206040518083038186803b15801561179757600080fd5b505afa1580156117ab573d6000803e3d6000fd5b505050506040513d601f19601f820116820180604052508101906117cf919061430f565b11156117f05760405160e560020a62461bcd02815260040161060390614b96565b5050600160055550565b6000600260055414156118225760405160e560020a62461bcd02815260040161060390614a83565b50601754600160055590565b3330146118505760405160e560020a62461bcd02815260040161060390614783565b6107d48282613f06565b6040516000903390600160e060020a03198335169061187c9084903690614554565b60405180910390a2600260055414156118aa5760405160e560020a62461bcd02815260040161060390614a83565b6002600555600754600160a060020a03166118da5760405160e560020a62461bcd028152600401610603906149de565b600854640100000000900460ff16158061190357503360009081526016602052604090205460ff165b6119225760405160e560020a62461bcd028152600401610603906148cb565b60075460405160e060020a636f50bd5d02815273__SmartPoolManager______________________91636f50bd5d91611971913091600160a060020a03909116908990899089906004016145d0565b60206040518083038186803b15801561198957600080fd5b505af415801561199d573d6000803e3d6000fd5b505050506040513d601f19601f820116820180604052508101906119c1919061430f565b905083600160a060020a031633600160a060020a0316600080516020614f26833981519152856040516119f49190614e36565b60405180910390a3611a0581611275565b611a0f33826107ca565b611a1a843385613cab565b60175430600160a060020a03166318160ddd6040518163ffffffff1660e060020a02815260040160206040518083038186803b158015611a5957600080fd5b505afa158015611a6d573d6000803e3d6000fd5b505050506040513d601f19601f82011682018060405250810190611a91919061430f565b11156107655760405160e560020a62461bcd02815260040161060390614b96565b33600160a060020a0316600035600160e060020a031916600160e060020a031916600036604051611ae4929190614554565b60405180910390a260026005541415611b125760405160e560020a62461bcd02815260040161060390614a83565b6002600555600454600160a060020a03163314611b445760405160e560020a62461bcd02815260040161060390614783565b600754600160a060020a0316611b6f5760405160e560020a62461bcd028152600401610603906149de565b6008546301000000900460ff16611b9b5760405160e560020a62461bcd028152600401610603906147ba565b6007546040805160e060020a63cc77828d0281529051606092600160a060020a03169163cc77828d916004808301926000929190829003018186803b158015611be357600080fd5b505afa158015611bf7573d6000803e3d6000fd5b505050506040513d6000823e601f3d908101601f19168201604052611c1f9190810190614161565b90506002815111611c455760405160e560020a62461bcd02815260040161060390614c04565b60095474010000000000000000000000000000000000000000900460ff1615611c835760405160e560020a62461bcd02815260040161060390614c3b565b60075460405160e060020a63cfc3120902815273__SmartPoolManager______________________9163cfc3120991611cce913091600160a060020a03909116908790600401614583565b60006040518083038186803b158015611ce657600080fd5b505af4158015611cfa573d6000803e3d6000fd5b5050600160055550505050565b336000908152600260209081526040808320600160a060020a0386168452909152812054808310611d5b57336000908152600260209081526040808320600160a060020a0388168452909152812055611d8a565b611d6581846138a4565b336000908152600260209081526040808320600160a060020a03891684529091529020555b336000818152600260209081526040808320600160a060020a038916808552925291829020549151909291600080516020614f0683398151915291611dcf9190614e36565b60405180910390a35060019392505050565b6040516000903390600160e060020a031983351690611e039084903690614554565b60405180910390a260026005541415611e315760405160e560020a62461bcd02815260040161060390614a83565b6002600555600754600160a060020a0316611e615760405160e560020a62461bcd028152600401610603906149de565b600854640100000000900460ff161580611e8a57503360009081526016602052604090205460ff165b611ea95760405160e560020a62461bcd028152600401610603906148cb565b60075460405160e060020a63c8ebc9ab02815273__SmartPoolManager______________________9163c8ebc9ab91611ef8913091600160a060020a03909116908990899089906004016145d0565b60206040518083038186803b158015611f1057600080fd5b505af4158015611f24573d6000803e3d6000fd5b505050506040513d601f19601f82011682018060405250810190611f48919061430f565b905083600160a060020a031633600160a060020a0316600080516020614f2683398151915283604051611f7b9190614e36565b60405180910390a3611f8c83611275565b611f9633846107ca565b611a1a843383613cab565b600160a060020a031660009081526001602052604090205490565b73__RightsManager_________________________90565b600854600090640100000000900460ff161561200c5750600160a060020a03811660009081526016602052604090205460ff16610e5a565b50600160a060020a0381161515610e5a565b33600160a060020a0316600035600160e060020a031916600160e060020a031916600036604051612050929190614554565b60405180910390a26002600554141561207e5760405160e560020a62461bcd02815260040161060390614a83565b6002600555600754600160a060020a0316156120af5760405160e560020a62461bcd02815260040161060390614a15565b600081116120d25760405160e560020a62461bcd02815260040161060390614894565b600660009054906101000a9004600160a060020a0316600160a060020a031663d556c5dc6040518163ffffffff1660e060020a028152600401602060405180830381600087803b15801561212557600080fd5b505af1158015612139573d6000803e3d6000fd5b505050506040513d601f19601f8201168201806040525081019061215d91906142bc565b60078054600160a060020a031916600160a060020a0392831617908190556040805160e160020a63632c06890281529051919092169163c6580d12916004808301926020929190829003018186803b1580156121b857600080fd5b505afa1580156121cc573d6000803e3d6000fd5b505050506040513d601f19601f820116820180604052508101906121f0919061430f565b156122105760405160e560020a62461bcd02815260040161060390614b5f565b600754600d5460405160e060020a6334e19907028152600160a060020a03909216916334e199079161224491600401614e36565b600060405180830381600087803b15801561225e57600080fd5b505af1158015612272573d6000803e3d6000fd5b505060085465010000000000900460ff1615915061229290505760178190555b60005b600e548110156124cc576000600e82815481106122ae57fe5b6000918252602082200154600f8054600160a060020a03909216935090849081106122d557fe5b906000526020600020015490506000601284815481106122f157fe5b600091825260208220015460405160e060020a6323b872dd028152909250600160a060020a038516906323b872dd90612332903390309088906004016144eb565b602060405180830381600087803b15801561234c57600080fd5b505af1158015612360573d6000803e3d6000fd5b505050506040513d601f19601f8201168201806040525081019061238491906142a0565b9050806123a65760405160e560020a62461bcd02815260040161060390614c72565b60075460405160e060020a63095ea7b3028152600160a060020a038681169263095ea7b3926123df92909116906000199060040161450f565b602060405180830381600087803b1580156123f957600080fd5b505af115801561240d573d6000803e3d6000fd5b505050506040513d601f19601f8201168201806040525081019061243191906142a0565b9050806124535760405160e560020a62461bcd02815260040161060390614c72565b60075460405160e360020a631c9c3ca7028152600160a060020a039091169063e4e1e5389061248a90879087908790600401614528565b600060405180830381600087803b1580156124a457600080fd5b505af11580156124b8573d6000803e3d6000fd5b505060019096019550612295945050505050565b505b600e541561250857600e8054806124e157fe5b60008281526020902081016000199081018054600160a060020a03191690550190556124ce565b60075460405160e160020a6324dacaa9028152600160a060020a03909116906349b595529061253c90600190600401614549565b600060405180830381600087803b15801561255657600080fd5b505af115801561256a573d6000803e3d6000fd5b5050505061257781611275565b61258133826107ca565b506001600555565b600454600160a060020a031633146125b65760405160e560020a62461bcd02815260040161060390614783565b600160a060020a0381166125df5760405160e560020a62461bcd02815260040161060390614902565b600454604051600160a060020a038084169216907f8be0079c531659141344cd1fd0a4f28419497f9722a3daafe3b4186f6b6457e090600090a360048054600160a060020a031916600160a060020a0392909216919091179055565b6000600260055414156126635760405160e560020a62461bcd02815260040161060390614aba565b600754600160a060020a031661268e5760405160e560020a62461bcd028152600401610603906149de565b60075460405160e160020a634a46c673028152600160a060020a039091169063948d8ce6906126c19085906004016144d7565b60206040518083038186803b1580156126d957600080fd5b505afa1580156126ed573d6000803e3d6000fd5b505050506040513d601f19601f82011682018060405250810190610e57919061430f565b60038054604080516020601f600260001961010060018816150201909516949094049384018190048102820181019092528281526060939092909183018282801561279d5780601f106127725761010080835404028352916020019161279d565b820191906000526020600020905b81548152906001019060200180831161278057829003601f168201915b5050505050905090565b33600160a060020a0316600035600160e060020a031916600160e060020a0319166000366040516127d9929190614554565b60405180910390a2600260055414156128075760405160e560020a62461bcd02815260040161060390614a83565b6002600555600454600160a060020a031633146128395760405160e560020a62461bcd02815260040161060390614783565b600754600160a060020a03166128645760405160e560020a62461bcd028152600401610603906149de565b60085462010000900460ff1661288f5760405160e560020a62461bcd02815260040161060390614970565b601054156128b25760405160e560020a62461bcd02815260040161060390614d85565b60075460405160e360020a63089d8f8d02815273__SmartPoolManager______________________916344ec7c6891611cce913091600160a060020a0390911690879087906004016145a6565b73__BalancerSafeMath______________________90565b73__SmartPoolManager______________________90565b6040518060400160405280601381526020017f42616c616e63657220536d61727420506f6f6c0000000000000000000000000081525081565b600a81565b6000600160a060020a0383166129985760405160e560020a62461bcd02815260040161060390614902565b6129a3338484613bae565b50600192915050565b33600160a060020a0316600035600160e060020a031916600160e060020a0319166000366040516129de929190614554565b60405180910390a260026005541415612a0c5760405160e560020a62461bcd02815260040161060390614a83565b6002600555600754600160a060020a0316612a3c5760405160e560020a62461bcd028152600401610603906149de565b60075460405160e160020a63747591bb028152600091829160609173__SmartPoolManager______________________9163e8eb237691612a91913091600160a060020a0316908b908b908b90600401614604565b60006040518083038186803b158015612aa957600080fd5b505af4158015612abd573d6000803e3d6000fd5b505050506040513d6000823e601f3d908101601f19168201604052612ae591908101906143d9565b925092509250612af53387611850565b600654612b0b90600160a060020a0316846107ca565b612b1482610867565b6007546040805160e060020a63cc77828d0281529051606092600160a060020a03169163cc77828d916004808301926000929190829003018186803b158015612b5c57600080fd5b505afa158015612b70573d6000803e3d6000fd5b505050506040513d6000823e601f3d908101601f19168201604052612b989190810190614161565b905060005b8151811015610c46576000828281518110612bb457fe5b602002602001015190506000848381518110612bcc57fe5b6020026020010151905081600160a060020a031633600160a060020a0316600080516020614ec683398151915283604051612c079190614e36565b60405180910390a3612c1a8233836138e0565b5050600101612b9d565b600754600160a060020a031681565b33600160a060020a0316600035600160e060020a031916600160e060020a031916600036604051612c65929190614554565b60405180910390a260026005541415612c935760405160e560020a62461bcd02815260040161060390614a83565b6002600555600454600160a060020a03163314612cc55760405160e560020a62461bcd02815260040161060390614783565b600754600160a060020a0316612cf05760405160e560020a62461bcd028152600401610603906149de565b6008546301000000900460ff16612d1c5760405160e560020a62461bcd028152600401610603906147ba565b60075460155460405160e260020a632235713502815273__SmartPoolManager______________________926388d5c4d492612d6a923092600160a060020a03169190600990600401614642565b60006040518083038186803b158015612d8257600080fd5b505af4158015612d96573d6000803e3d6000fd5b505060016005555050565b33600160a060020a0316600035600160e060020a031916600160e060020a031916600036604051612dd3929190614554565b60405180910390a260026005541415612e015760405160e560020a62461bcd02815260040161060390614a83565b6002600555600754600160a060020a031615612e325760405160e560020a62461bcd02815260040161060390614a15565b60008311612e555760405160e560020a62461bcd02815260040161060390614894565b600a821015612e795760405160e560020a62461bcd02815260040161060390614826565b81811115612e9c5760405160e560020a62461bcd028152600401610603906147f1565b600a811015612ec05760405160e560020a62461bcd02815260040161060390614a4c565b601482905560158190556006546040805160e260020a633555b1770281529051600160a060020a039092169163d556c5dc916004808201926020929091908290030181600087803b158015612f1457600080fd5b505af1158015612f28573d6000803e3d6000fd5b505050506040513d601f19601f82011682018060405250810190612f4c91906142bc565b60078054600160a060020a031916600160a060020a0392831617908190556040805160e160020a63632c06890281529051919092169163c6580d12916004808301926020929190829003018186803b158015612fa757600080fd5b505afa158015612fbb573d6000803e3d6000fd5b505050506040513d601f19601f82011682018060405250810190612fdf919061430f565b15612fff5760405160e560020a62461bcd02815260040161060390614b5f565b600754600d5460405160e060020a6334e19907028152600160a060020a03909216916334e199079161303391600401614e36565b600060405180830381600087803b15801561304d57600080fd5b505af1158015613061573d6000803e3d6000fd5b505060085465010000000000900460ff1615915061308190505760178390555b60005b600e548110156132bb576000600e828154811061309d57fe5b6000918252602082200154600f8054600160a060020a03909216935090849081106130c457fe5b906000526020600020015490506000601284815481106130e057fe5b600091825260208220015460405160e060020a6323b872dd028152909250600160a060020a038516906323b872dd90613121903390309088906004016144eb565b602060405180830381600087803b15801561313b57600080fd5b505af115801561314f573d6000803e3d6000fd5b505050506040513d601f19601f8201168201806040525081019061317391906142a0565b9050806131955760405160e560020a62461bcd02815260040161060390614c72565b60075460405160e060020a63095ea7b3028152600160a060020a038681169263095ea7b3926131ce92909116906000199060040161450f565b602060405180830381600087803b1580156131e857600080fd5b505af11580156131fc573d6000803e3d6000fd5b505050506040513d601f19601f8201168201806040525081019061322091906142a0565b9050806132425760405160e560020a62461bcd02815260040161060390614c72565b60075460405160e360020a631c9c3ca7028152600160a060020a039091169063e4e1e5389061327990879087908790600401614528565b600060405180830381600087803b15801561329357600080fd5b505af11580156132a7573d6000803e3d6000fd5b505060019096019550613084945050505050565b505b600e54156132f757600e8054806132d057fe5b60008281526020902081016000199081018054600160a060020a03191690550190556132bd565b60075460405160e160020a6324dacaa9028152600160a060020a03909116906349b595529061332b90600190600401614549565b600060405180830381600087803b15801561334557600080fd5b505af1158015613359573d6000803e3d6000fd5b5050505061336683611275565b6117f033846107ca565b600454600160a060020a0316331461339d5760405160e560020a62461bcd02815260040161060390614783565b600260055414156133c35760405160e560020a62461bcd02815260040161060390614a83565b6002600555604051339060008035600160e060020a031916916133e891903690614554565b60405180910390a2600854640100000000900460ff1661341d5760405160e560020a62461bcd02815260040161060390614939565b600160a060020a0381166134465760405160e560020a62461bcd02815260040161060390614af1565b600160a060020a03166000908152601660205260409020805460ff19166001908117909155600555565b336000908152600260209081526040808320600160a060020a038616845290915281205461349e9083613f11565b336000818152600260209081526040808320600160a060020a03891680855292529182902084905590519092600080516020614f068339815191529161081f9190614e36565b600160a060020a03918216600090815260026020908152604080832093909416825291909152205490565b33600160a060020a0316600035600160e060020a031916600160e060020a031916600036604051613541929190614554565b60405180910390a26002600554141561356f5760405160e560020a62461bcd02815260040161060390614a83565b6002600555600754600160a060020a031661359f5760405160e560020a62461bcd028152600401610603906149de565b60085462010000900460ff166135ca5760405160e560020a62461bcd02815260040161060390614970565b60105460115443106135dc5760006010555b60075460115460405160e360020a6281bd0502815273__SmartPoolManager______________________9263040de8289261362e92600160a060020a03909216918691906012906013906004016146e4565b60006040518083038186803b15801561364657600080fd5b505af4158015610dbb573d6000803e3d6000fd5b600454600160a060020a031633146136875760405160e560020a62461bcd02815260040161060390614783565b600260055414156136ad5760405160e560020a62461bcd02815260040161060390614a83565b6002600555604051339060008035600160e060020a031916916136d291903690614554565b60405180910390a2600854640100000000900460ff166137075760405160e560020a62461bcd02815260040161060390614939565b600160a060020a03811660009081526016602052604090205460ff166137425760405160e560020a62461bcd028152600401610603906149a7565b600160a060020a03811661376b5760405160e560020a62461bcd02815260040161060390614af1565b600160a060020a03166000908152601660205260409020805460ff191690556001600555565b6040516000903390600160e060020a0319833516906137b39084903690614554565b60405180910390a2600260055414156137e15760405160e560020a62461bcd02815260040161060390614a83565b6002600555600754600160a060020a03166138115760405160e560020a62461bcd028152600401610603906149de565b600760009054906101000a9004600160a060020a0316600160a060020a031663fde924f76040518163ffffffff1660e060020a02815260040160206040518083038186803b15801561386257600080fd5b505afa158015613876573d6000803e3d6000fd5b505050506040513d601f19601f8201168201806040525081019061389a91906142a0565b9050600160055590565b60008060006138b38585613f39565b9150915080156138d85760405160e560020a62461bcd02815260040161060390614ce0565b509392505050565b600754600160a060020a031661390b5760405160e560020a62461bcd028152600401610603906149de565b60075460405160e060020a63f8b2cb4f028152600091600160a060020a03169063f8b2cb4f9061393f9087906004016144d7565b60206040518083038186803b15801561395757600080fd5b505afa15801561396b573d6000803e3d6000fd5b505050506040513d601f19601f8201168201806040525081019061398f919061430f565b60075460405160e160020a634a46c673028152919250600091600160a060020a039091169063948d8ce6906139c89088906004016144d7565b60206040518083038186803b1580156139e057600080fd5b505afa1580156139f4573d6000803e3d6000fd5b505050506040513d601f19601f82011682018060405250810190613a18919061430f565b600754909150600160a060020a0316633fdddaa286613a3785876138a4565b846040518463ffffffff1660e060020a028152600401613a5993929190614528565b600060405180830381600087803b158015613a7357600080fd5b505af1158015613a87573d6000803e3d6000fd5b505060405160e060020a63a9059cbb02815260009250600160a060020a038816915063a9059cbb90613abf908890889060040161450f565b602060405180830381600087803b158015613ad957600080fd5b505af1158015613aed573d6000803e3d6000fd5b505050506040513d601f19601f82011682018060405250810190613b1191906142a0565b905080613b335760405160e560020a62461bcd02815260040161060390614c72565b505050505050565b6107d4308383613bae565b30600090815260016020526040902054613b6090826138a4565b3060009081526001602052604081209190915554613b7e90826138a4565b60009081556040513090600080516020614ee683398151915290613ba3908590614e36565b60405180910390a350565b600160a060020a038316600090815260016020526040902054613bd190826138a4565b600160a060020a038085166000908152600160205260408082209390935590841681522054613c009082613f11565b600160a060020a038084166000818152600160205260409081902093909355915190851690600080516020614ee683398151915290613c40908590614e36565b60405180910390a3505050565b30600090815260016020526040902054613c679082613f11565b3060009081526001602052604081209190915554613c859082613f11565b6000908155604051309190600080516020614ee683398151915290613ba3908590614e36565b600754600160a060020a0316613cd65760405160e560020a62461bcd028152600401610603906149de565b60075460405160e060020a63f8b2cb4f028152600091600160a060020a03169063f8b2cb4f90613d0a9087906004016144d7565b60206040518083038186803b158015613d2257600080fd5b505afa158015613d36573d6000803e3d6000fd5b505050506040513d601f19601f82011682018060405250810190613d5a919061430f565b60075460405160e160020a634a46c673028152919250600091600160a060020a039091169063948d8ce690613d939088906004016144d7565b60206040518083038186803b158015613dab57600080fd5b505afa158015613dbf573d6000803e3d6000fd5b505050506040513d601f19601f82011682018060405250810190613de3919061430f565b9050600085600160a060020a03166323b872dd8630876040518463ffffffff1660e060020a028152600401613e1a939291906144eb565b602060405180830381600087803b158015613e3457600080fd5b505af1158015613e48573d6000803e3d6000fd5b505050506040513d601f19601f82011682018060405250810190613e6c91906142a0565b905080613e8e5760405160e560020a62461bcd02815260040161060390614c72565b600754600160a060020a0316633fdddaa287613eaa8688613f11565b856040518463ffffffff1660e060020a028152600401613ecc93929190614528565b600060405180830381600087803b158015613ee657600080fd5b505af1158015613efa573d6000803e3d6000fd5b50505050505050505050565b6107d4823083613bae565b6000828201838110156109a05760405160e560020a62461bcd02815260040161060390614d17565b600080838311613f4f5750508082036000613f57565b505081810360015b9250929050565b828054828255906000526020600020908101928215613f99579160200282015b82811115613f99578235825591602001919060010190613f7e565b50613fa5929150613fa9565b5090565b5b80821115613fa55760008155600101613faa565b60008083601f840112613fcf578081fd5b50813567ffffffffffffffff811115613fe6578182fd5b6020830191508360208083028501011115613f5757600080fd5b600082601f830112614010578081fd5b815161402361401e82614e82565b614e5b565b81815291506020808301908481018184028601820187101561404457600080fd5b60005b8481101561406357815184529282019290820190600101614047565b505050505092915050565b60006020828403121561407f578081fd5b81356109a081614ea2565b6000806040838503121561409c578081fd5b82356140a781614ea2565b915060208301356140b781614ea2565b809150509250929050565b6000806000606084860312156140d6578081fd5b83356140e181614ea2565b925060208401356140f181614ea2565b929592945050506040919091013590565b60008060408385031215614114578182fd5b823561411f81614ea2565b946020939093013593505050565b600080600060608486031215614141578283fd5b833561414c81614ea2565b95602085013595506040909401359392505050565b60006020808385031215614173578182fd5b825167ffffffffffffffff811115614189578283fd5b8301601f81018513614199578283fd5b80516141a761401e82614e82565b81815283810190838501858402850186018910156141c3578687fd5b8694505b838510156141ee5780516141da81614ea2565b8352600194909401939185019185016141c7565b50979650505050505050565b6000806000806060858703121561420f578081fd5b843567ffffffffffffffff811115614225578182fd5b61423187828801613fbe565b90989097506020870135966040013595509350505050565b60006020828403121561425a578081fd5b815167ffffffffffffffff811115614270578182fd5b61427c84828501614000565b949350505050565b600060208284031215614295578081fd5b81356109a081614eb7565b6000602082840312156142b1578081fd5b81516109a081614eb7565b6000602082840312156142cd578081fd5b81516109a081614ea2565b6000602082840312156142e9578081fd5b8135600681106109a0578182fd5b600060208284031215614308578081fd5b5035919050565b600060208284031215614320578081fd5b5051919050565b60008060006040848603121561433b578081fd5b83359250602084013567ffffffffffffffff811115614358578182fd5b61436486828701613fbe565b9497909650939450505050565b60008060408385031215614383578182fd5b82519150602083015167ffffffffffffffff8111156143a0578182fd5b6143ac85828601614000565b9150509250929050565b600080604083850312156143c8578182fd5b505080516020909101519092909150565b6000806000606084860312156143ed578081fd5b8351925060208401519150604084015167ffffffffffffffff811115614411578182fd5b61441d86828701614000565b9150509250925092565b60008060006060848603121561443b578081fd5b505081359360208301359350604090920135919050565b8183526000600160fb60020a0383111561446a578081fd5b6020830280836020870137939093016020019283525090919050565b6000815480845260208085019450838352808320835b838110156144b85781548752958201956001918201910161449c565b509495945050505050565b15159052565b600681106144d357fe5b9052565b600160a060020a0391909116815260200190565b600160a060020a039384168152919092166020820152604081019190915260600190565b600160a060020a03929092168252602082015260400190565b600160a060020a039390931683526020830191909152604082015260600190565b901515815260200190565b60006020825282602083015282846040840137818301604090810191909152601f909201601f19160101919050565b600160a060020a0393841681529183166020830152909116604082015260600190565b600160a060020a039485168152928416602084015292166040820152606081019190915260800190565b600160a060020a03958616815293851660208501529190931660408301526060820192909252608081019190915260a00190565b6000600160a060020a03808816835280871660208401525084604083015260806060830152614637608083018486614452565b979650505050505050565b600160a060020a0394851681529290931660208301526040820152606081019190915260800190565b600160a060020a03958616815293909416602084015260408301919091526060820152608081019190915260a00190565b6000600160a060020a038916825287602083015260c060408301526146c560c083018789614452565b606083019590955250608081019290925260a090910152949350505050565b6000600160a060020a038716825285602083015284604083015260a0606083015261471260a0830185614486565b82810360808401526147248185614486565b98975050505050505050565b6000602080835283518082850152825b8181101561475c57858101830151858201604001528201614740565b8181111561476d5783604083870101525b50601f01601f1916929092016040019392505050565b60208082526012908201527f4552525f4e4f545f434f4e54524f4c4c45520000000000000000000000000000604082015260600190565b6020808252601c908201527f4552525f43414e4e4f545f4144445f52454d4f56455f544f4b454e5300000000604082015260600190565b6020808252818101527f4552525f494e434f4e53495354454e545f544f4b454e5f54494d455f4c4f434b604082015260600190565b60208082526018908201527f4552525f494e56414c49445f424c4f434b5f504552494f440000000000000000604082015260600190565b6020808252601a908201527f4552525f53544152545f574549474854535f4d49534d41544348000000000000604082015260600190565b6020808252600f908201527f4552525f494e49545f535550504c590000000000000000000000000000000000604082015260600190565b60208082526014908201527f4552525f4e4f545f4f4e5f57484954454c495354000000000000000000000000604082015260600190565b60208082526010908201527f4552525f5a45524f5f4144445245535300000000000000000000000000000000604082015260600190565b60208082526018908201527f4552525f43414e4e4f545f57484954454c4953545f4c50530000000000000000604082015260600190565b6020808252601c908201527f4552525f4e4f545f434f4e464947555241424c455f5745494748545300000000604082015260600190565b60208082526016908201527f4552525f4c505f4e4f545f57484954454c495354454400000000000000000000604082015260600190565b6020808252600f908201527f4552525f4e4f545f435245415445440000000000000000000000000000000000604082015260600190565b6020808252600e908201527f4552525f49535f43524541544544000000000000000000000000000000000000604082015260600190565b6020808252601b908201527f4552525f494e56414c49445f544f4b454e5f54494d455f4c4f434b0000000000604082015260600190565b6020808252600b908201527f4552525f5245454e545259000000000000000000000000000000000000000000604082015260600190565b60208082526010908201527f4552525f5245454e5452595f5649455700000000000000000000000000000000604082015260600190565b60208082526013908201527f4552525f494e56414c49445f4144445245535300000000000000000000000000604082015260600190565b60208082526015908201527f4552525f43414e4e4f545f4348414e47455f4341500000000000000000000000604082015260600190565b60208082526014908201527f4552525f4e4f4e5a45524f5f455849545f464545000000000000000000000000604082015260600190565b60208082526015908201527f4552525f4341505f4c494d49545f524541434845440000000000000000000000604082015260600190565b60208082526016908201527f4552525f5043544f4b454e5f4241445f43414c4c455200000000000000000000604082015260600190565b60208082526012908201527f4552525f544f4f5f4645575f544f4b454e530000000000000000000000000000604082015260600190565b6020808252601b908201527f4552525f52454d4f56455f574954485f4144445f50454e44494e470000000000604082015260600190565b6020808252600f908201527f4552525f45524332305f46414c53450000000000000000000000000000000000604082015260600190565b60208082526015908201527f4552525f4e4f545f5041555341424c455f535741500000000000000000000000604082015260600190565b60208082526011908201527f4552525f5355425f554e444552464c4f57000000000000000000000000000000604082015260600190565b60208082526010908201527f4552525f4144445f4f564552464c4f5700000000000000000000000000000000604082015260600190565b6020808252601d908201527f4552525f4e4f545f434f4e464947555241424c455f535741505f464545000000604082015260600190565b6020808252601c908201527f4552525f4e4f5f5550444154455f445552494e475f4752414455414c00000000604082015260600190565b825460ff8082161515835261010082048116151560208401526201000082048116151560408401526301000000820481161515606084015260e083019190614e1060808501640100000000840483166144c3565b614e2760a0850182650100000000008504166144c3565b50506109a060c08301846144c9565b90815260200190565b918252602082015260400190565b60ff91909116815260200190565b60405181810167ffffffffffffffff81118282101715614e7a57600080fd5b604052919050565b600067ffffffffffffffff821115614e98578081fd5b5060209081020190565b600160a060020a038116811461087057600080fd5b801515811461087057600080fdfec62fc35ac75e3bff532648e2859a3e1694002cfa357614ae8e034df7f83db5e9ddf252ad1be2c89b69c2b068fc378daa952ba7f163c4a11628f55a4df523b3ef8c5be1e5ebec7d5bd14f71427d1e84f3dd0314c0f7b2291e5b200ac8c7c3b925ea39e3b35c5cd8937999ed5f7fbab30acd562a931fc4a887fed2a47c3074aa72a2646970667358221220d19969812738b205b224dba2cc8337f3656d87ba793d36a1785261318b1b16c664736f6c634300060c0033a264697066735822122085ea670a770cbe14c6f16c6cbd560f392d03b2343ad3f1ecc3f962d5c8bee98064736f6c634300060c0033",
  "immutableReferences": {},
  "source": "// SPDX-License-Identifier: GPL-3.0-or-later\npragma solidity ^0.6.6;\n\n// Needed to handle structures externally\npragma experimental ABIEncoderV2;\n\n// Imports\n\nimport \"./ConfigurableRightsPool.sol\";\n\n// Contracts\n\n/**\n * @author Balancer Labs\n * @title Configurable Rights Pool Factory - create parameterized smart pools\n * @dev Rights are held in a corresponding struct in ConfigurableRightsPool\n *      Index values are as follows:\n *      0: canPauseSwapping - can setPublicSwap back to false after turning it on\n *                            by default, it is off on initialization and can only be turned on\n *      1: canChangeSwapFee - can setSwapFee after initialization (by default, it is fixed at create time)\n *      2: canChangeWeights - can bind new token weights (allowed by default in base pool)\n *      3: canAddRemoveTokens - can bind/unbind tokens (allowed by default in base pool)\n *      4: canWhitelistLPs - if set, only whitelisted addresses can join pools\n *                           (enables private pools with more than one LP)\n */\ncontract CRPFactory {\n    // State variables\n\n    // Keep a list of all Configurable Rights Pools\n    mapping(address=>bool) private _isCrp;\n\n    // Event declarations\n\n    // Log the address of each new smart pool, and its creator\n    event LogNewCrp(\n        address indexed caller,\n        address indexed pool\n    );\n\n    // Function declarations\n\n    /**\n     * @notice Check to see if a given address is a CRP\n     * @param addr - address to check\n     * @return boolean indicating whether it is a CRP\n     */\n    function isCrp(address addr) external view returns (bool) {\n        return _isCrp[addr];\n    }\n\n    /**\n     * @notice Create a new CRP\n     * @dev emits a LogNewCRP event\n     * @param factoryAddress - the BFactory instance used to create the underlying pool\n     * @param tokens - initial set of tokens\n     * @param startBalances - initial balances (parallel array)\n     * @param startWeights - initial weights (parallal array)\n     * @param swapFee - initial swap fee\n     * @param rights - struct of permissions, configuring this CRP instance (see above for definitions)\n     */\n    function newCrp(\n        address factoryAddress,\n        string calldata symbol,\n        address[] calldata tokens,\n        uint[] calldata startBalances,\n        uint[] calldata startWeights,\n        uint swapFee,\n        RightsManager.Rights calldata rights\n    )\n        external\n        returns (ConfigurableRightsPool)\n    {\n        require(tokens.length >= BalancerConstants.MIN_ASSET_LIMIT, \"ERR_TOO_FEW_TOKENS\");\n\n        // Arrays must be parallel\n        require(startBalances.length == tokens.length, \"ERR_START_BALANCES_MISMATCH\");\n        require(startWeights.length == tokens.length, \"ERR_START_WEIGHTS_MISMATCH\");\n\n        ConfigurableRightsPool crp = new ConfigurableRightsPool(\n            factoryAddress,\n            symbol,\n            tokens,\n            startBalances,\n            startWeights,\n            swapFee,\n            rights\n        );\n\n        _isCrp[address(crp)] = true;\n        crp.setController(msg.sender);\n\n        emit LogNewCrp(msg.sender, address(crp));\n\n        return crp;\n    }\n}\n",
  "sourcePath": "/Users/fabien/WebstormProjects/balancer/configurable-rights-pool/contracts/CRPFactory.sol",
  "compiler": {
    "name": "solc",
    "version": "0.6.12+commit.27d51765.Emscripten.clang"
  },
  "schemaVersion": "3.1.0",
  "updatedAt": "2020-08-17T11:04:12.270Z",
  "devdoc": {
    "author": "Balancer Labs",
    "details": "Rights are held in a corresponding struct in ConfigurableRightsPool      Index values are as follows:      0: canPauseSwapping - can setPublicSwap back to false after turning it on                            by default, it is off on initialization and can only be turned on      1: canChangeSwapFee - can setSwapFee after initialization (by default, it is fixed at create time)      2: canChangeWeights - can bind new token weights (allowed by default in base pool)      3: canAddRemoveTokens - can bind/unbind tokens (allowed by default in base pool)      4: canWhitelistLPs - if set, only whitelisted addresses can join pools                           (enables private pools with more than one LP)",
    "kind": "dev",
    "methods": {
      "isCrp(address)": {
        "params": {
          "addr": "- address to check"
        },
        "returns": {
          "_0": "boolean indicating whether it is a CRP"
        }
      },
      "newCrp(address,string,address[],uint256[],uint256[],uint256,(bool,bool,bool,bool,bool,bool))": {
        "details": "emits a LogNewCRP event",
        "params": {
          "factoryAddress": "- the BFactory instance used to create the underlying pool",
          "rights": "- struct of permissions, configuring this CRP instance (see above for definitions)",
          "startBalances": "- initial balances (parallel array)",
          "startWeights": "- initial weights (parallal array)",
          "swapFee": "- initial swap fee",
          "tokens": "- initial set of tokens"
        }
      }
    },
    "title": "Configurable Rights Pool Factory - create parameterized smart pools",
    "version": 1
  },
  "userdoc": {
    "kind": "user",
    "methods": {
      "isCrp(address)": {
        "notice": "Check to see if a given address is a CRP"
      },
      "newCrp(address,string,address[],uint256[],uint256[],uint256,(bool,bool,bool,bool,bool,bool))": {
        "notice": "Create a new CRP"
      }
    },
    "version": 1
  }
}